:1005590053D9BF12066412000E1206751206A312B1
:100569000696E4F561F562F55EF55FD286C287C24B
:10057900B67F0AFE12064CD2AFD2ACD2A9D28CC237
:1005890001C2B63001FDC28CC20112024CD28C806C
:01059900F26F
:10066400E4F5C943B283F5B3F586F5B1F589F58EA2
:010674002263
:10000E0075A4D075A50375A74075F4CC75E101757F
:03001E00E240229B
:10067500759850438920758D64D28E438E01C29939
:010685002252
:0D06960075D10E75BA1F75BCF875E880228D
:0204DF00AB0769
:1004E100E4F542F541F540F53F8BBBF543F5447F1B
:1004F100607EEA1206860544E54470020543C39412
:1005010006E5436480948040E6C2EDD2EC20ED0321
:100511000080FAAFBEE48F3EF53DF53CF53BAE3DC4
:10052100AD3CAC3B78081202398F3E8E3D8D3C8C40
:100531003BAFBDE53E4FF53EE53DF53DE53CF53CC8
:10054100E53BF53B853E42853D41853C40F53FAF6E
:0705510042AE41AD40AC3F9A
:010558002280
:10024C00D287D2B67F057E001206317F081204DFFA
:10025C008F2A8E298D288C277F091204DF8F2E8EF2
:10026C002D8D2C8C2B7F071204DF8F328E318D302D
:10027C008C2F7F061204DF8F368E358D348C337FB6
:10028C00051204DF8F3A8E398D388C37E47FC67EA9
:10029C000CFDFCAB2AAA29A928A82712011CE4FBF7
:1002AC007A04F9F81201A7EF24A8FFEE34FDFEED55
:1002BC0034FFFDEC34FFFCE47B03FAF9F81201A7E0
:1002CC008F2A8E298D288C27E47FC67E0CFDFCABF3
:1002DC002EAA2DA92CA82B12011CE4FB7A04F9F8E8
:1002EC001201A7E47B1EFAF9F81201A78F2E8E2DAE
:1002FC008D2C8C2BE47FC67E0CFDFCAB32AA31A975
:10030C0030A82F12011CE4FB7A04F9F81201A7E4BF
:10031C007B32FAF9F812011CE47BE87A03F9F81243
:10032C0001A78F328E318D308C2FE47FC67E0CFD71
:10033C00FCAB36AA35A934A83312011CE4FB7A04B1
:10034C00F9F81201A7E47B32FAF9F812011CE47BEC
:10035C00E87A03F9F81201A78F368E358D348C3379
:10036C00E47F8E7E02FDFCAB3AAA39A938A837127D
:10037C00011CE47B05FAF9F81201A7E4FB7A04F9F5
:10038C00F81201A78F3A8E398D388C378529218543
:10039C002A22852E238532248536258F26C2B675D2
:1003AC0045FD754609E4F54775482E7549AA784A06
:1003BC007C00FDFB7A007921FE7F021200F6784C5E
:1003CC007C007D007B007A0079237E007F01120087
:1003DC00F6784D7C007D007B007A0079247E007FCE
:1003EC00011200F6784E7C007D007B007A007925A6
:1003FC007E007F011200F6784F7C007D007B007A36
:10040C000079267E007F011200F67550BB7551CC29
:0E041C0012059A7F017E00120631C2B6C28719
:01042A0022AF
:10042B00D2877F091204DF8F0F8E0E8D0D8C0C7F00
:10043B00081204DF8F138E128D118C10E47FC67E91
:10044B000CFDFCAB0FAA0EA90DA80C12011CE4FBB2
:10045B007A04F9F81201A7EF24A8FFEE34FDFEEDA4
:10046B0034FFFDEC34FFFCE47B03FAF9F81201A72F
:10047B008E088F09E47FC67E0CFDFCAB13AA12A974
:10048B0011A81012011CE4FB7A04F9F81201A7E47D
:10049B007B1EFAF9F81201A78E0A8F0B7545FD75B5
:1004AB00460475472875487B784A7C007D007B00A5
:1004BB007A0079087E007F021200F6784C7C007D72
:1004CB00007B007A00790A7E007F021200F612058B
:0304DB009AC2873B
:0104DE0022FB
:10059A007F0A7E0012064CC2ACE4F53BF53C74457A
:1005AA00253CF8E6F5992099030080FAC2997F6400
:1005BA007E00120686053CE53C7002053BC3940D9D
:0A05CA00E53B6480948040D6D2AC7B
:0105D4002204
:030023000205D5FE
:1005D500C0E0C0D075D000C00020991EC298056249
:1005E500E56270020561142452F8A699E562640C6F
:1005F50045617006D200F561F562C299D000D0D090
:03060500D0E03210
:0D06A300438E04438901758C15758AA022D1
:03000B00020608E2
:10060800C0E0C0D0C2A9C28D055FE55F7002055E7B
:10061800B4D00DE55EB40708755E00755F00D201C1
:09062800D28CD2A9D0D0D0E0326E
:10068600EF1FAC0670011E4C600500000080F122D1
:10064C00AB07AA06EB1BAE0270011A4E600974FFD1
:08065C00FFFE12068680ED226C
:100631008F828E83E5821582AE83700215834E60B0
:0B064100097F0A7E0012064C80EA22AE
:030000000206B045
:0C06B000787FE4F6D8FD758162020559E0
:10002600E709F608DFFA8046E709F208DFFA803EBC
:1000360088828C83E709F0A3DFFA8032E309F608A9
:10004600DFFA8078E309F208DFFA807088828C8311
:10005600E309F0A3DFFA806489828A83E0A3F608C5
:10006600DFFA805889828A83E0A3F208DFFA804C9F
:1000760080D280FA80C680D4806980F28033801076
:1000860080A680EA809A80A880DA80E280CA8033DF
:1000960089828A83ECFAE493A3C8C582C8CCC58357
:1000A600CCF0A3C8C582C8CCC583CCDFE9DEE78027
:1000B6000D89828A83E493A3F608DFF9ECFAA9F0A6
:1000C600EDFB2289828A83ECFAE0A3C8C582C8CCFC
:1000D600C583CCF0A3C8C582C8CCC583CCDFEADE15
:1000E600E880DB89828A83E493A3F208DFF980CC77
:1000F60088F0EF60010E4E60C388F0ED2402B40470
:100106000050B9F582EB2402B4040050AF23234516
:06011600822390007673C5
:10011C00E88FF0A4CC8BF0A42CFCE98EF0A42CFC82
:10012C008AF0EDA42CFCEA8EF0A4CDA8F08BF0A400
:10013C002DCC3825F0FDE98FF0A42CCD35F0FCEB5F
:10014C008EF0A4FEA9F0EB8FF0A4CFC5F02ECD3924
:0F015C00FEE43CFCEAA42DCE35F0FDE43CFC2291
:10016B0075F008758200EF2FFFEE33FECD33CDCC4B
:10017B0033CCC58233C5829BED9AEC99E5829840CE
:10018B000CF582EE9BFEED9AFDEC99FC0FD5F0D6AB
:10019B00E4CEFBE4CDFAE4CCF9A88222B800C1B9D5
:1001AB000059BA002DEC8BF084CFCECDFCE5F0CB13
:1001BB00F97818EF2FFFEE33FEED33FDEC33FCEB4C
:1001CB0033FB10D703994004EB99FB0FD8E5E4F907
:1001DB00FA227818EF2FFFEE33FEED33FDEC33FCF4
:1001EB00C933C910D7059BE99A4007EC9BFCE99AE8
:1001FB00F90FD8E0E4C9FAE4CCFB2275F010EF2F2D
:10020B00FFEE33FEED33FDCC33CCC833C810D7072C
:10021B009BEC9AE899400AED9BFDEC9AFCE899F867
:0E022B000FD5F0DAE4CDFBE4CCFAE4C8F922FA
:10023900E8600FEFC333FFEE33FEED33FDEC33FC23
:03024900D8F122C7
:00000001FF
